{
  "contractName": "TokenizedAccess",
  "abi": [
    {
      "inputs": [
        {
          "internalType": "string",
          "name": "_tokenName",
          "type": "string"
        },
        {
          "internalType": "string",
          "name": "_tokenSymbol",
          "type": "string"
        },
        {
          "internalType": "uint256",
          "name": "_cost",
          "type": "uint256"
        },
        {
          "internalType": "uint256",
          "name": "_maxSupply",
          "type": "uint256"
        },
        {
          "internalType": "uint256",
          "name": "_maxMintAmountPerTx",
          "type": "uint256"
        },
        {
          "internalType": "string",
          "name": "_hiddenMetadataUri",
          "type": "string"
        },
        {
          "internalType": "string",
          "name": "_contractUri",
          "type": "string"
        }
      ],
      "stateMutability": "nonpayable",
      "type": "constructor"
    },
    {
      "inputs": [],
      "name": "ApprovalCallerNotOwnerNorApproved",
      "type": "error"
    },
    {
      "inputs": [],
      "name": "ApprovalQueryForNonexistentToken",
      "type": "error"
    },
    {
      "inputs": [],
      "name": "ApprovalToCurrentOwner",
      "type": "error"
    },
    {
      "inputs": [],
      "name": "ApproveToCaller",
      "type": "error"
    },
    {
      "inputs": [],
      "name": "BalanceQueryForZeroAddress",
      "type": "error"
    },
    {
      "inputs": [],
      "name": "MintToZeroAddress",
      "type": "error"
    },
    {
      "inputs": [],
      "name": "MintZeroQuantity",
      "type": "error"
    },
    {
      "inputs": [],
      "name": "OwnerQueryForNonexistentToken",
      "type": "error"
    },
    {
      "inputs": [],
      "name": "TransferCallerNotOwnerNorApproved",
      "type": "error"
    },
    {
      "inputs": [],
      "name": "TransferFromIncorrectOwner",
      "type": "error"
    },
    {
      "inputs": [],
      "name": "TransferToNonERC721ReceiverImplementer",
      "type": "error"
    },
    {
      "inputs": [],
      "name": "TransferToZeroAddress",
      "type": "error"
    },
    {
      "anonymous": false,
      "inputs": [
        {
          "indexed": true,
          "internalType": "address",
          "name": "owner",
          "type": "address"
        },
        {
          "indexed": true,
          "internalType": "address",
          "name": "approved",
          "type": "address"
        },
        {
          "indexed": true,
          "internalType": "uint256",
          "name": "tokenId",
          "type": "uint256"
        }
      ],
      "name": "Approval",
      "type": "event"
    },
    {
      "anonymous": false,
      "inputs": [
        {
          "indexed": true,
          "internalType": "address",
          "name": "owner",
          "type": "address"
        },
        {
          "indexed": true,
          "internalType": "address",
          "name": "operator",
          "type": "address"
        },
        {
          "indexed": false,
          "internalType": "bool",
          "name": "approved",
          "type": "bool"
        }
      ],
      "name": "ApprovalForAll",
      "type": "event"
    },
    {
      "anonymous": false,
      "inputs": [
        {
          "indexed": true,
          "internalType": "address",
          "name": "previousOwner",
          "type": "address"
        },
        {
          "indexed": true,
          "internalType": "address",
          "name": "newOwner",
          "type": "address"
        }
      ],
      "name": "OwnershipTransferred",
      "type": "event"
    },
    {
      "anonymous": false,
      "inputs": [
        {
          "indexed": true,
          "internalType": "address",
          "name": "from",
          "type": "address"
        },
        {
          "indexed": true,
          "internalType": "address",
          "name": "to",
          "type": "address"
        },
        {
          "indexed": true,
          "internalType": "uint256",
          "name": "tokenId",
          "type": "uint256"
        }
      ],
      "name": "Transfer",
      "type": "event"
    },
    {
      "inputs": [
        {
          "internalType": "address",
          "name": "to",
          "type": "address"
        },
        {
          "internalType": "uint256",
          "name": "tokenId",
          "type": "uint256"
        }
      ],
      "name": "approve",
      "outputs": [],
      "stateMutability": "nonpayable",
      "type": "function"
    },
    {
      "inputs": [
        {
          "internalType": "address",
          "name": "owner",
          "type": "address"
        }
      ],
      "name": "balanceOf",
      "outputs": [
        {
          "internalType": "uint256",
          "name": "",
          "type": "uint256"
        }
      ],
      "stateMutability": "view",
      "type": "function",
      "constant": true
    },
    {
      "inputs": [],
      "name": "contractUri",
      "outputs": [
        {
          "internalType": "string",
          "name": "",
          "type": "string"
        }
      ],
      "stateMutability": "view",
      "type": "function",
      "constant": true
    },
    {
      "inputs": [],
      "name": "cost",
      "outputs": [
        {
          "internalType": "uint256",
          "name": "",
          "type": "uint256"
        }
      ],
      "stateMutability": "view",
      "type": "function",
      "constant": true
    },
    {
      "inputs": [
        {
          "internalType": "uint256",
          "name": "tokenId",
          "type": "uint256"
        }
      ],
      "name": "getApproved",
      "outputs": [
        {
          "internalType": "address",
          "name": "",
          "type": "address"
        }
      ],
      "stateMutability": "view",
      "type": "function",
      "constant": true
    },
    {
      "inputs": [],
      "name": "hiddenMetadataUri",
      "outputs": [
        {
          "internalType": "string",
          "name": "",
          "type": "string"
        }
      ],
      "stateMutability": "view",
      "type": "function",
      "constant": true
    },
    {
      "inputs": [
        {
          "internalType": "address",
          "name": "owner",
          "type": "address"
        },
        {
          "internalType": "address",
          "name": "operator",
          "type": "address"
        }
      ],
      "name": "isApprovedForAll",
      "outputs": [
        {
          "internalType": "bool",
          "name": "",
          "type": "bool"
        }
      ],
      "stateMutability": "view",
      "type": "function",
      "constant": true
    },
    {
      "inputs": [],
      "name": "maxMintAmountPerTx",
      "outputs": [
        {
          "internalType": "uint256",
          "name": "",
          "type": "uint256"
        }
      ],
      "stateMutability": "view",
      "type": "function",
      "constant": true
    },
    {
      "inputs": [],
      "name": "maxSupply",
      "outputs": [
        {
          "internalType": "uint256",
          "name": "",
          "type": "uint256"
        }
      ],
      "stateMutability": "view",
      "type": "function",
      "constant": true
    },
    {
      "inputs": [],
      "name": "merkleRoot",
      "outputs": [
        {
          "internalType": "bytes32",
          "name": "",
          "type": "bytes32"
        }
      ],
      "stateMutability": "view",
      "type": "function",
      "constant": true
    },
    {
      "inputs": [],
      "name": "mintWave",
      "outputs": [
        {
          "internalType": "uint256",
          "name": "",
          "type": "uint256"
        }
      ],
      "stateMutability": "view",
      "type": "function",
      "constant": true
    },
    {
      "inputs": [],
      "name": "name",
      "outputs": [
        {
          "internalType": "string",
          "name": "",
          "type": "string"
        }
      ],
      "stateMutability": "view",
      "type": "function",
      "constant": true
    },
    {
      "inputs": [],
      "name": "owner",
      "outputs": [
        {
          "internalType": "address",
          "name": "",
          "type": "address"
        }
      ],
      "stateMutability": "view",
      "type": "function",
      "constant": true
    },
    {
      "inputs": [
        {
          "internalType": "uint256",
          "name": "tokenId",
          "type": "uint256"
        }
      ],
      "name": "ownerOf",
      "outputs": [
        {
          "internalType": "address",
          "name": "",
          "type": "address"
        }
      ],
      "stateMutability": "view",
      "type": "function",
      "constant": true
    },
    {
      "inputs": [],
      "name": "paused",
      "outputs": [
        {
          "internalType": "bool",
          "name": "",
          "type": "bool"
        }
      ],
      "stateMutability": "view",
      "type": "function",
      "constant": true
    },
    {
      "inputs": [],
      "name": "revealed",
      "outputs": [
        {
          "internalType": "bool",
          "name": "",
          "type": "bool"
        }
      ],
      "stateMutability": "view",
      "type": "function",
      "constant": true
    },
    {
      "inputs": [
        {
          "internalType": "address",
          "name": "from",
          "type": "address"
        },
        {
          "internalType": "address",
          "name": "to",
          "type": "address"
        },
        {
          "internalType": "uint256",
          "name": "tokenId",
          "type": "uint256"
        }
      ],
      "name": "safeTransferFrom",
      "outputs": [],
      "stateMutability": "nonpayable",
      "type": "function"
    },
    {
      "inputs": [
        {
          "internalType": "address",
          "name": "from",
          "type": "address"
        },
        {
          "internalType": "address",
          "name": "to",
          "type": "address"
        },
        {
          "internalType": "uint256",
          "name": "tokenId",
          "type": "uint256"
        },
        {
          "internalType": "bytes",
          "name": "_data",
          "type": "bytes"
        }
      ],
      "name": "safeTransferFrom",
      "outputs": [],
      "stateMutability": "nonpayable",
      "type": "function"
    },
    {
      "inputs": [
        {
          "internalType": "address",
          "name": "operator",
          "type": "address"
        },
        {
          "internalType": "bool",
          "name": "approved",
          "type": "bool"
        }
      ],
      "name": "setApprovalForAll",
      "outputs": [],
      "stateMutability": "nonpayable",
      "type": "function"
    },
    {
      "inputs": [
        {
          "internalType": "bytes4",
          "name": "interfaceId",
          "type": "bytes4"
        }
      ],
      "name": "supportsInterface",
      "outputs": [
        {
          "internalType": "bool",
          "name": "",
          "type": "bool"
        }
      ],
      "stateMutability": "view",
      "type": "function",
      "constant": true
    },
    {
      "inputs": [],
      "name": "symbol",
      "outputs": [
        {
          "internalType": "string",
          "name": "",
          "type": "string"
        }
      ],
      "stateMutability": "view",
      "type": "function",
      "constant": true
    },
    {
      "inputs": [],
      "name": "totalSupply",
      "outputs": [
        {
          "internalType": "uint256",
          "name": "",
          "type": "uint256"
        }
      ],
      "stateMutability": "view",
      "type": "function",
      "constant": true
    },
    {
      "inputs": [
        {
          "internalType": "address",
          "name": "from",
          "type": "address"
        },
        {
          "internalType": "address",
          "name": "to",
          "type": "address"
        },
        {
          "internalType": "uint256",
          "name": "tokenId",
          "type": "uint256"
        }
      ],
      "name": "transferFrom",
      "outputs": [],
      "stateMutability": "nonpayable",
      "type": "function"
    },
    {
      "inputs": [],
      "name": "uriPrefix",
      "outputs": [
        {
          "internalType": "string",
          "name": "",
          "type": "string"
        }
      ],
      "stateMutability": "view",
      "type": "function",
      "constant": true
    },
    {
      "inputs": [],
      "name": "uriSuffix",
      "outputs": [
        {
          "internalType": "string",
          "name": "",
          "type": "string"
        }
      ],
      "stateMutability": "view",
      "type": "function",
      "constant": true
    },
    {
      "inputs": [
        {
          "internalType": "address",
          "name": "",
          "type": "address"
        }
      ],
      "name": "whitelistClaimed",
      "outputs": [
        {
          "internalType": "uint256",
          "name": "",
          "type": "uint256"
        }
      ],
      "stateMutability": "view",
      "type": "function",
      "constant": true
    },
    {
      "inputs": [],
      "name": "whitelistMintEnabled",
      "outputs": [
        {
          "internalType": "bool",
          "name": "",
          "type": "bool"
        }
      ],
      "stateMutability": "view",
      "type": "function",
      "constant": true
    },
    {
      "inputs": [],
      "name": "renounceOwnership",
      "outputs": [],
      "stateMutability": "view",
      "type": "function",
      "constant": true
    },
    {
      "inputs": [
        {
          "internalType": "address",
          "name": "newOwner",
          "type": "address"
        }
      ],
      "name": "transferOwnership",
      "outputs": [],
      "stateMutability": "view",
      "type": "function",
      "constant": true
    },
    {
      "inputs": [
        {
          "internalType": "uint256",
          "name": "_mintAmount",
          "type": "uint256"
        },
        {
          "internalType": "bytes32[]",
          "name": "_merkleProof",
          "type": "bytes32[]"
        }
      ],
      "name": "whitelistMint",
      "outputs": [],
      "stateMutability": "payable",
      "type": "function",
      "payable": true
    },
    {
      "inputs": [
        {
          "internalType": "bytes32[]",
          "name": "_merkleProof",
          "type": "bytes32[]"
        }
      ],
      "name": "whitelistContains",
      "outputs": [
        {
          "internalType": "bool",
          "name": "",
          "type": "bool"
        }
      ],
      "stateMutability": "view",
      "type": "function",
      "constant": true
    },
    {
      "inputs": [
        {
          "internalType": "uint256",
          "name": "_mintAmount",
          "type": "uint256"
        }
      ],
      "name": "mint",
      "outputs": [],
      "stateMutability": "payable",
      "type": "function",
      "payable": true
    },
    {
      "inputs": [
        {
          "internalType": "uint256",
          "name": "_mintAmount",
          "type": "uint256"
        },
        {
          "internalType": "address",
          "name": "_receiver",
          "type": "address"
        }
      ],
      "name": "mintForAddress",
      "outputs": [],
      "stateMutability": "nonpayable",
      "type": "function"
    },
    {
      "inputs": [
        {
          "internalType": "address",
          "name": "_owner",
          "type": "address"
        }
      ],
      "name": "walletOfOwner",
      "outputs": [
        {
          "internalType": "uint256[]",
          "name": "",
          "type": "uint256[]"
        }
      ],
      "stateMutability": "view",
      "type": "function",
      "constant": true
    },
    {
      "inputs": [
        {
          "internalType": "uint256",
          "name": "_tokenId",
          "type": "uint256"
        }
      ],
      "name": "tokenURI",
      "outputs": [
        {
          "internalType": "string",
          "name": "",
          "type": "string"
        }
      ],
      "stateMutability": "view",
      "type": "function",
      "constant": true
    },
    {
      "inputs": [
        {
          "internalType": "bool",
          "name": "_state",
          "type": "bool"
        }
      ],
      "name": "setRevealed",
      "outputs": [],
      "stateMutability": "nonpayable",
      "type": "function"
    },
    {
      "inputs": [
        {
          "internalType": "uint256",
          "name": "_cost",
          "type": "uint256"
        }
      ],
      "name": "setCost",
      "outputs": [],
      "stateMutability": "nonpayable",
      "type": "function"
    },
    {
      "inputs": [
        {
          "internalType": "uint256",
          "name": "_mintWave",
          "type": "uint256"
        }
      ],
      "name": "setMintWave",
      "outputs": [],
      "stateMutability": "nonpayable",
      "type": "function"
    },
    {
      "inputs": [
        {
          "internalType": "uint256",
          "name": "_maxMintAmountPerTx",
          "type": "uint256"
        }
      ],
      "name": "setMaxMintAmountPerTx",
      "outputs": [],
      "stateMutability": "nonpayable",
      "type": "function"
    },
    {
      "inputs": [
        {
          "internalType": "uint256",
          "name": "_maxSupply",
          "type": "uint256"
        }
      ],
      "name": "setMaxSupply",
      "outputs": [],
      "stateMutability": "nonpayable",
      "type": "function"
    },
    {
      "inputs": [
        {
          "internalType": "string",
          "name": "_hiddenMetadataUri",
          "type": "string"
        }
      ],
      "name": "setHiddenMetadataUri",
      "outputs": [],
      "stateMutability": "nonpayable",
      "type": "function"
    },
    {
      "inputs": [
        {
          "internalType": "string",
          "name": "_contractUri",
          "type": "string"
        }
      ],
      "name": "setContractUri",
      "outputs": [],
      "stateMutability": "nonpayable",
      "type": "function"
    },
    {
      "inputs": [
        {
          "internalType": "string",
          "name": "_uriPrefix",
          "type": "string"
        }
      ],
      "name": "setUriPrefix",
      "outputs": [],
      "stateMutability": "nonpayable",
      "type": "function"
    },
    {
      "inputs": [
        {
          "internalType": "string",
          "name": "_uriSuffix",
          "type": "string"
        }
      ],
      "name": "setUriSuffix",
      "outputs": [],
      "stateMutability": "nonpayable",
      "type": "function"
    },
    {
      "inputs": [
        {
          "internalType": "bool",
          "name": "_state",
          "type": "bool"
        }
      ],
      "name": "setPaused",
      "outputs": [],
      "stateMutability": "nonpayable",
      "type": "function"
    },
    {
      "inputs": [
        {
          "internalType": "bytes32",
          "name": "_merkleRoot",
          "type": "bytes32"
        }
      ],
      "name": "setMerkleRoot",
      "outputs": [],
      "stateMutability": "nonpayable",
      "type": "function"
    },
    {
      "inputs": [
        {
          "internalType": "bool",
          "name": "_state",
          "type": "bool"
        }
      ],
      "name": "setWhitelistMintEnabled",
      "outputs": [],
      "stateMutability": "nonpayable",
      "type": "function"
    },
    {
      "inputs": [],
      "name": "withdraw",
      "outputs": [],
      "stateMutability": "nonpayable",
      "type": "function"
    },
    {
      "inputs": [],
      "name": "contractURI",
      "outputs": [
        {
          "internalType": "string",
          "name": "",
          "type": "string"
        }
      ],
      "stateMutability": "view",
      "type": "function",
      "constant": true
    }
  ],
  "bytecode": "0x608060405260405180602001604052806000815250600c90805190602001906200002b929190620006a1565b506040518060400160405280600581526020017f2e6a736f6e000000000000000000000000000000000000000000000000000000815250600d908051906020019062000079929190620006a1565b506001601460006101000a81548160ff0219169083151502179055506000601460016101000a81548160ff0219169083151502179055506000601460026101000a81548160ff021916908315150217905550348015620000d857600080fd5b5060405162005896380380620058968339818101604052810190620000fe9190620007e6565b8686816002908051906020019062000118929190620006a1565b50806003908051906020019062000131929190620006a1565b5062000142620001e660201b60201c565b60008190555050506200016a6200015e620001ef60201b60201c565b620001f760201b60201c565b60016009819055506200018385620002bd60201b60201c565b6200019560016200035660201b60201c565b620001a684620003ef60201b60201c565b620001b7836200048860201b60201c565b620001c8826200052160201b60201c565b620001d981620005cc60201b60201c565b5050505050505062000b40565b60006001905090565b600033905090565b6000600860009054906101000a900473ffffffffffffffffffffffffffffffffffffffff16905081600860006101000a81548173ffffffffffffffffffffffffffffffffffffffff021916908373ffffffffffffffffffffffffffffffffffffffff1602179055508173ffffffffffffffffffffffffffffffffffffffff168173ffffffffffffffffffffffffffffffffffffffff167f8be0079c531659141344cd1fd0a4f28419497f9722a3daafe3b4186f6b6457e060405160405180910390a35050565b620002cd620001ef60201b60201c565b73ffffffffffffffffffffffffffffffffffffffff16620002f36200067760201b60201c565b73ffffffffffffffffffffffffffffffffffffffff16146200034c576040517f08c379a000000000000000000000000000000000000000000000000000000000815260040162000343906200093c565b60405180910390fd5b8060108190555050565b62000366620001ef60201b60201c565b73ffffffffffffffffffffffffffffffffffffffff166200038c6200067760201b60201c565b73ffffffffffffffffffffffffffffffffffffffff1614620003e5576040517f08c379a0000000000000000000000000000000000000000000000000000000008152600401620003dc906200093c565b60405180910390fd5b8060138190555050565b620003ff620001ef60201b60201c565b73ffffffffffffffffffffffffffffffffffffffff16620004256200067760201b60201c565b73ffffffffffffffffffffffffffffffffffffffff16146200047e576040517f08c379a000000000000000000000000000000000000000000000000000000000815260040162000475906200093c565b60405180910390fd5b8060118190555050565b62000498620001ef60201b60201c565b73ffffffffffffffffffffffffffffffffffffffff16620004be6200067760201b60201c565b73ffffffffffffffffffffffffffffffffffffffff161462000517576040517f08c379a00000000000000000000000000000000000000000000000000000000081526004016200050e906200093c565b60405180910390fd5b8060128190555050565b62000531620001ef60201b60201c565b73ffffffffffffffffffffffffffffffffffffffff16620005576200067760201b60201c565b73ffffffffffffffffffffffffffffffffffffffff1614620005b0576040517f08c379a0000000000000000000000000000000000000000000000000000000008152600401620005a7906200093c565b60405180910390fd5b80600e9080519060200190620005c8929190620006a1565b5050565b620005dc620001ef60201b60201c565b73ffffffffffffffffffffffffffffffffffffffff16620006026200067760201b60201c565b73ffffffffffffffffffffffffffffffffffffffff16146200065b576040517f08c379a000000000000000000000000000000000000000000000000000000000815260040162000652906200093c565b60405180910390fd5b80600f908051906020019062000673929190620006a1565b5050565b6000600860009054906101000a900473ffffffffffffffffffffffffffffffffffffffff16905090565b828054620006af9062000a0e565b90600052602060002090601f016020900481019282620006d357600085556200071f565b82601f10620006ee57805160ff19168380011785556200071f565b828001600101855582156200071f579182015b828111156200071e57825182559160200191906001019062000701565b5b5090506200072e919062000732565b5090565b5b808211156200074d57600081600090555060010162000733565b5090565b600062000768620007628462000987565b6200095e565b90508281526020810184848401111562000787576200078662000add565b5b62000794848285620009d8565b509392505050565b600082601f830112620007b457620007b362000ad8565b5b8151620007c684826020860162000751565b91505092915050565b600081519050620007e08162000b26565b92915050565b600080600080600080600060e0888a03121562000808576200080762000ae7565b5b600088015167ffffffffffffffff81111562000829576200082862000ae2565b5b620008378a828b016200079c565b975050602088015167ffffffffffffffff8111156200085b576200085a62000ae2565b5b620008698a828b016200079c565b96505060406200087c8a828b01620007cf565b95505060606200088f8a828b01620007cf565b9450506080620008a28a828b01620007cf565b93505060a088015167ffffffffffffffff811115620008c657620008c562000ae2565b5b620008d48a828b016200079c565b92505060c088015167ffffffffffffffff811115620008f857620008f762000ae2565b5b620009068a828b016200079c565b91505092959891949750929550565b600062000924602083620009bd565b9150620009318262000afd565b602082019050919050565b60006020820190508181036000830152620009578162000915565b9050919050565b60006200096a6200097d565b905062000978828262000a44565b919050565b6000604051905090565b600067ffffffffffffffff821115620009a557620009a462000aa9565b5b620009b08262000aec565b9050602081019050919050565b600082825260208201905092915050565b6000819050919050565b60005b83811015620009f8578082015181840152602081019050620009db565b8381111562000a08576000848401525b50505050565b6000600282049050600182168062000a2757607f821691505b6020821081141562000a3e5762000a3d62000a7a565b5b50919050565b62000a4f8262000aec565b810181811067ffffffffffffffff8211171562000a715762000a7062000aa9565b5b80604052505050565b7f4e487b7100000000000000000000000000000000000000000000000000000000600052602260045260246000fd5b7f4e487b7100000000000000000000000000000000000000000000000000000000600052604160045260246000fd5b600080fd5b600080fd5b600080fd5b600080fd5b6000601f19601f8301169050919050565b7f4f776e61626c653a2063616c6c6572206973206e6f7420746865206f776e6572600082015250565b62000b3181620009ce565b811462000b3d57600080fd5b50565b614d468062000b506000396000f3fe6080604052600436106102ae5760003560e01c806379caa5a811610175578063b767a098116100dc578063d5abeb0111610095578063e8a3d4851161006f578063e8a3d48514610a6a578063e985e9c514610a95578063efbd73f414610ad2578063f2fde38b14610afb576102ae565b8063d5abeb01146109d9578063db4bec4414610a04578063e0a8085314610a41576102ae565b8063b767a098146108da578063b88d4fde14610903578063c0e24d5e1461092c578063c87b56dd14610957578063ccb4807b14610994578063d2cab056146109bd576102ae565b806395d89b411161012e57806395d89b41146107eb578063a0712d6814610816578063a22cb46514610832578063a45ba8e71461085b578063b071401b14610886578063b4596d2b146108af576102ae565b806379caa5a8146106dd5780637cb647591461071a5780637d5b5039146107435780637ec4a6591461076c5780638da5cb5b1461079557806394354fd0146107c0576102ae565b8063438b63001161021957806362b99ad4116101d257806362b99ad4146105cd5780636352211e146105f85780636caede3d146106355780636f8b44b01461066057806370a0823114610689578063715018a6146106c6576102ae565b8063438b6300146104bd57806344a0d68a146104fa5780634fdd43cb14610523578063518302271461054c5780635503a0e8146105775780635c975abb146105a2576102ae565b806316c38b3c1161026b57806316c38b3c146103d557806318160ddd146103fe57806323b872dd146104295780632eb4a7ab146104525780633ccfd60b1461047d57806342842e0e14610494576102ae565b806301ffc9a7146102b357806306fdde03146102f0578063081812fc1461031b578063095ea7b31461035857806313faede61461038157806316ba10e0146103ac575b600080fd5b3480156102bf57600080fd5b506102da60048036038101906102d59190613e0c565b610b24565b6040516102e791906143e1565b60405180910390f35b3480156102fc57600080fd5b50610305610c06565b6040516103129190614417565b60405180910390f35b34801561032757600080fd5b50610342600480360381019061033d9190613eaf565b610c98565b60405161034f9190614358565b60405180910390f35b34801561036457600080fd5b5061037f600480360381019061037a9190613d25565b610d14565b005b34801561038d57600080fd5b50610396610e1f565b6040516103a39190614579565b60405180910390f35b3480156103b857600080fd5b506103d360048036038101906103ce9190613e66565b610e25565b005b3480156103e157600080fd5b506103fc60048036038101906103f79190613db2565b610ebb565b005b34801561040a57600080fd5b50610413610f54565b6040516104209190614579565b60405180910390f35b34801561043557600080fd5b50610450600480360381019061044b9190613c0f565b610f6b565b005b34801561045e57600080fd5b50610467610f7b565b60405161047491906143fc565b60405180910390f35b34801561048957600080fd5b50610492610f81565b005b3480156104a057600080fd5b506104bb60048036038101906104b69190613c0f565b6110d3565b005b3480156104c957600080fd5b506104e460048036038101906104df9190613ba2565b6110f3565b6040516104f191906143bf565b60405180910390f35b34801561050657600080fd5b50610521600480360381019061051c9190613eaf565b611307565b005b34801561052f57600080fd5b5061054a60048036038101906105459190613e66565b61138d565b005b34801561055857600080fd5b50610561611423565b60405161056e91906143e1565b60405180910390f35b34801561058357600080fd5b5061058c611436565b6040516105999190614417565b60405180910390f35b3480156105ae57600080fd5b506105b76114c4565b6040516105c491906143e1565b60405180910390f35b3480156105d957600080fd5b506105e26114d7565b6040516105ef9190614417565b60405180910390f35b34801561060457600080fd5b5061061f600480360381019061061a9190613eaf565b611565565b60405161062c9190614358565b60405180910390f35b34801561064157600080fd5b5061064a61157b565b60405161065791906143e1565b60405180910390f35b34801561066c57600080fd5b5061068760048036038101906106829190613eaf565b61158e565b005b34801561069557600080fd5b506106b060048036038101906106ab9190613ba2565b611614565b6040516106bd9190614579565b60405180910390f35b3480156106d257600080fd5b506106db6116e4565b005b3480156106e957600080fd5b5061070460048036038101906106ff9190613d65565b611765565b60405161071191906143e1565b60405180910390f35b34801561072657600080fd5b50610741600480360381019061073c9190613ddf565b6117ef565b005b34801561074f57600080fd5b5061076a60048036038101906107659190613eaf565b611875565b005b34801561077857600080fd5b50610793600480360381019061078e9190613e66565b6118fb565b005b3480156107a157600080fd5b506107aa611991565b6040516107b79190614358565b60405180910390f35b3480156107cc57600080fd5b506107d56119bb565b6040516107e29190614579565b60405180910390f35b3480156107f757600080fd5b506108006119c1565b60405161080d9190614417565b60405180910390f35b610830600480360381019061082b9190613eaf565b611a53565b005b34801561083e57600080fd5b5061085960048036038101906108549190613ce5565b611bb3565b005b34801561086757600080fd5b50610870611d2b565b60405161087d9190614417565b60405180910390f35b34801561089257600080fd5b506108ad60048036038101906108a89190613eaf565b611db9565b005b3480156108bb57600080fd5b506108c4611e3f565b6040516108d19190614579565b60405180910390f35b3480156108e657600080fd5b5061090160048036038101906108fc9190613db2565b611e45565b005b34801561090f57600080fd5b5061092a60048036038101906109259190613c62565b611ede565b005b34801561093857600080fd5b50610941611f5a565b60405161094e9190614417565b60405180910390f35b34801561096357600080fd5b5061097e60048036038101906109799190613eaf565b611fe8565b60405161098b9190614417565b60405180910390f35b3480156109a057600080fd5b506109bb60048036038101906109b69190613e66565b612141565b005b6109d760048036038101906109d29190613f1c565b6121d7565b005b3480156109e557600080fd5b506109ee612459565b6040516109fb9190614579565b60405180910390f35b348015610a1057600080fd5b50610a2b6004803603810190610a269190613ba2565b61245f565b604051610a389190614579565b60405180910390f35b348015610a4d57600080fd5b50610a686004803603810190610a639190613db2565b612477565b005b348015610a7657600080fd5b50610a7f612510565b604051610a8c9190614417565b60405180910390f35b348015610aa157600080fd5b50610abc6004803603810190610ab79190613bcf565b6125a2565b604051610ac991906143e1565b60405180910390f35b348015610ade57600080fd5b50610af96004803603810190610af49190613edc565b612636565b005b348015610b0757600080fd5b50610b226004803603810190610b1d9190613ba2565b61276a565b005b60007f80ac58cd000000000000000000000000000000000000000000000000000000007bffffffffffffffffffffffffffffffffffffffffffffffffffffffff1916827bffffffffffffffffffffffffffffffffffffffffffffffffffffffff19161480610bef57507f5b5e139f000000000000000000000000000000000000000000000000000000007bffffffffffffffffffffffffffffffffffffffffffffffffffffffff1916827bffffffffffffffffffffffffffffffffffffffffffffffffffffffff1916145b80610bff5750610bfe82612825565b5b9050919050565b606060028054610c159061488c565b80601f0160208091040260200160405190810160405280929190818152602001828054610c419061488c565b8015610c8e5780601f10610c6357610100808354040283529160200191610c8e565b820191906000526020600020905b815481529060010190602001808311610c7157829003601f168201915b5050505050905090565b6000610ca38261288f565b610cd9576040517fcf4700e400000000000000000000000000000000000000000000000000000000815260040160405180910390fd5b6006600083815260200190815260200160002060009054906101000a900473ffffffffffffffffffffffffffffffffffffffff169050919050565b6000610d1f82611565565b90508073ffffffffffffffffffffffffffffffffffffffff168373ffffffffffffffffffffffffffffffffffffffff161415610d87576040517f943f7b8c00000000000000000000000000000000000000000000000000000000815260040160405180910390fd5b8073ffffffffffffffffffffffffffffffffffffffff16610da66128dd565b73ffffffffffffffffffffffffffffffffffffffff1614158015610dd85750610dd681610dd16128dd565b6125a2565b155b15610e0f576040517fcfb3b94200000000000000000000000000000000000000000000000000000000815260040160405180910390fd5b610e1a8383836128e5565b505050565b60105481565b610e2d6128dd565b73ffffffffffffffffffffffffffffffffffffffff16610e4b611991565b73ffffffffffffffffffffffffffffffffffffffff1614610ea1576040517f08c379a0000000000000000000000000000000000000000000000000000000008152600401610e9890614479565b60405180910390fd5b80600d9080519060200190610eb7929190613908565b5050565b610ec36128dd565b73ffffffffffffffffffffffffffffffffffffffff16610ee1611991565b73ffffffffffffffffffffffffffffffffffffffff1614610f37576040517f08c379a0000000000000000000000000000000000000000000000000000000008152600401610f2e90614479565b60405180910390fd5b80601460006101000a81548160ff02191690831515021790555050565b6000610f5e612997565b6001546000540303905090565b610f768383836129a0565b505050565b600a5481565b610f896128dd565b73ffffffffffffffffffffffffffffffffffffffff16610fa7611991565b73ffffffffffffffffffffffffffffffffffffffff1614610ffd576040517f08c379a0000000000000000000000000000000000000000000000000000000008152600401610ff490614479565b60405180910390fd5b60026009541415611043576040517f08c379a000000000000000000000000000000000000000000000000000000000815260040161103a90614539565b60405180910390fd5b60026009819055506000611055611991565b73ffffffffffffffffffffffffffffffffffffffff164760405161107890614343565b60006040518083038185875af1925050503d80600081146110b5576040519150601f19603f3d011682016040523d82523d6000602084013e6110ba565b606091505b50509050806110c857600080fd5b506001600981905550565b6110ee83838360405180602001604052806000815250611ede565b505050565b6060600061110083611614565b905060008167ffffffffffffffff81111561111e5761111d614a49565b5b60405190808252806020026020018201604052801561114c5781602001602082028036833780820191505090505b5090506000611159612997565b90506000805b848210801561116f575060005483105b156112fa576000600460008581526020019081526020016000206040518060600160405290816000820160009054906101000a900473ffffffffffffffffffffffffffffffffffffffff1673ffffffffffffffffffffffffffffffffffffffff1673ffffffffffffffffffffffffffffffffffffffff1681526020016000820160149054906101000a900467ffffffffffffffff1667ffffffffffffffff1667ffffffffffffffff16815260200160008201601c9054906101000a900460ff161515151581525050905080604001516112e657600073ffffffffffffffffffffffffffffffffffffffff16816000015173ffffffffffffffffffffffffffffffffffffffff161461128257806000015191505b8773ffffffffffffffffffffffffffffffffffffffff168273ffffffffffffffffffffffffffffffffffffffff1614156112e557838584815181106112ca576112c9614a1a565b5b60200260200101818152505082806112e1906148ef565b9350505b5b83806112f1906148ef565b9450505061115f565b8395505050505050919050565b61130f6128dd565b73ffffffffffffffffffffffffffffffffffffffff1661132d611991565b73ffffffffffffffffffffffffffffffffffffffff1614611383576040517f08c379a000000000000000000000000000000000000000000000000000000000815260040161137a90614479565b60405180910390fd5b8060108190555050565b6113956128dd565b73ffffffffffffffffffffffffffffffffffffffff166113b3611991565b73ffffffffffffffffffffffffffffffffffffffff1614611409576040517f08c379a000000000000000000000000000000000000000000000000000000000815260040161140090614479565b60405180910390fd5b80600e908051906020019061141f929190613908565b5050565b601460029054906101000a900460ff1681565b600d80546114439061488c565b80601f016020809104026020016040519081016040528092919081815260200182805461146f9061488c565b80156114bc5780601f10611491576101008083540402835291602001916114bc565b820191906000526020600020905b81548152906001019060200180831161149f57829003601f168201915b505050505081565b601460009054906101000a900460ff1681565b600c80546114e49061488c565b80601f01602080910402602001604051908101604052809291908181526020018280546115109061488c565b801561155d5780601f106115325761010080835404028352916020019161155d565b820191906000526020600020905b81548152906001019060200180831161154057829003601f168201915b505050505081565b600061157082612e56565b600001519050919050565b601460019054906101000a900460ff1681565b6115966128dd565b73ffffffffffffffffffffffffffffffffffffffff166115b4611991565b73ffffffffffffffffffffffffffffffffffffffff161461160a576040517f08c379a000000000000000000000000000000000000000000000000000000000815260040161160190614479565b60405180910390fd5b8060118190555050565b60008073ffffffffffffffffffffffffffffffffffffffff168273ffffffffffffffffffffffffffffffffffffffff16141561167c576040517f8f4eb60400000000000000000000000000000000000000000000000000000000815260040160405180910390fd5b600560008373ffffffffffffffffffffffffffffffffffffffff1673ffffffffffffffffffffffffffffffffffffffff16815260200190815260200160002060000160009054906101000a900467ffffffffffffffff1667ffffffffffffffff169050919050565b6116ec6128dd565b73ffffffffffffffffffffffffffffffffffffffff1661170a611991565b73ffffffffffffffffffffffffffffffffffffffff1614611760576040517f08c379a000000000000000000000000000000000000000000000000000000000815260040161175790614479565b60405180910390fd5b600080fd5b6000806117706128dd565b60405160200161178091906142f7565b6040516020818303038152906040528051906020012090506117e6848480806020026020016040519081016040528093929190818152602001838360200280828437600081840152601f19601f82011690508083019250505050505050600a54836130e5565b91505092915050565b6117f76128dd565b73ffffffffffffffffffffffffffffffffffffffff16611815611991565b73ffffffffffffffffffffffffffffffffffffffff161461186b576040517f08c379a000000000000000000000000000000000000000000000000000000000815260040161186290614479565b60405180910390fd5b80600a8190555050565b61187d6128dd565b73ffffffffffffffffffffffffffffffffffffffff1661189b611991565b73ffffffffffffffffffffffffffffffffffffffff16146118f1576040517f08c379a00000000000000000000000000000000000000000000000000000000081526004016118e890614479565b60405180910390fd5b8060138190555050565b6119036128dd565b73ffffffffffffffffffffffffffffffffffffffff16611921611991565b73ffffffffffffffffffffffffffffffffffffffff1614611977576040517f08c379a000000000000000000000000000000000000000000000000000000000815260040161196e90614479565b60405180910390fd5b80600c908051906020019061198d929190613908565b5050565b6000600860009054906101000a900473ffffffffffffffffffffffffffffffffffffffff16905090565b60125481565b6060600380546119d09061488c565b80601f01602080910402602001604051908101604052809291908181526020018280546119fc9061488c565b8015611a495780601f10611a1e57610100808354040283529160200191611a49565b820191906000526020600020905b815481529060010190602001808311611a2c57829003601f168201915b5050505050905090565b80600081118015611a6657506012548111155b611aa5576040517f08c379a0000000000000000000000000000000000000000000000000000000008152600401611a9c90614459565b60405180910390fd5b60115481611ab1610f54565b611abb91906146b7565b1115611afc576040517f08c379a0000000000000000000000000000000000000000000000000000000008152600401611af3906144f9565b60405180910390fd5b8180601054611b0b919061473e565b341015611b4d576040517f08c379a0000000000000000000000000000000000000000000000000000000008152600401611b4490614559565b60405180910390fd5b601460009054906101000a900460ff1615611b9d576040517f08c379a0000000000000000000000000000000000000000000000000000000008152600401611b9490614499565b60405180910390fd5b611bae611ba86128dd565b846130fc565b505050565b611bbb6128dd565b73ffffffffffffffffffffffffffffffffffffffff168273ffffffffffffffffffffffffffffffffffffffff161415611c20576040517fb06307db00000000000000000000000000000000000000000000000000000000815260040160405180910390fd5b8060076000611c2d6128dd565b73ffffffffffffffffffffffffffffffffffffffff1673ffffffffffffffffffffffffffffffffffffffff16815260200190815260200160002060008473ffffffffffffffffffffffffffffffffffffffff1673ffffffffffffffffffffffffffffffffffffffff16815260200190815260200160002060006101000a81548160ff0219169083151502179055508173ffffffffffffffffffffffffffffffffffffffff16611cda6128dd565b73ffffffffffffffffffffffffffffffffffffffff167f17307eab39ab6107e8899845ad3d59bd9653f200f220920489ca2b5937696c3183604051611d1f91906143e1565b60405180910390a35050565b600e8054611d389061488c565b80601f0160208091040260200160405190810160405280929190818152602001828054611d649061488c565b8015611db15780601f10611d8657610100808354040283529160200191611db1565b820191906000526020600020905b815481529060010190602001808311611d9457829003601f168201915b505050505081565b611dc16128dd565b73ffffffffffffffffffffffffffffffffffffffff16611ddf611991565b73ffffffffffffffffffffffffffffffffffffffff1614611e35576040517f08c379a0000000000000000000000000000000000000000000000000000000008152600401611e2c90614479565b60405180910390fd5b8060128190555050565b60135481565b611e4d6128dd565b73ffffffffffffffffffffffffffffffffffffffff16611e6b611991565b73ffffffffffffffffffffffffffffffffffffffff1614611ec1576040517f08c379a0000000000000000000000000000000000000000000000000000000008152600401611eb890614479565b60405180910390fd5b80601460016101000a81548160ff02191690831515021790555050565b611ee98484846129a0565b611f088373ffffffffffffffffffffffffffffffffffffffff1661311a565b8015611f1d5750611f1b8484848461313d565b155b15611f54576040517fd1a57ed600000000000000000000000000000000000000000000000000000000815260040160405180910390fd5b50505050565b600f8054611f679061488c565b80601f0160208091040260200160405190810160405280929190818152602001828054611f939061488c565b8015611fe05780601f10611fb557610100808354040283529160200191611fe0565b820191906000526020600020905b815481529060010190602001808311611fc357829003601f168201915b505050505081565b6060611ff38261288f565b612032576040517f08c379a0000000000000000000000000000000000000000000000000000000008152600401612029906144d9565b60405180910390fd5b60001515601460029054906101000a900460ff16151514156120e057600e805461205b9061488c565b80601f01602080910402602001604051908101604052809291908181526020018280546120879061488c565b80156120d45780601f106120a9576101008083540402835291602001916120d4565b820191906000526020600020905b8154815290600101906020018083116120b757829003601f168201915b5050505050905061213c565b60006120ea61329d565b9050600081511161210a5760405180602001604052806000815250612138565b806121148461332f565b600d60405160200161212893929190614312565b6040516020818303038152906040525b9150505b919050565b6121496128dd565b73ffffffffffffffffffffffffffffffffffffffff16612167611991565b73ffffffffffffffffffffffffffffffffffffffff16146121bd576040517f08c379a00000000000000000000000000000000000000000000000000000000081526004016121b490614479565b60405180910390fd5b80600f90805190602001906121d3929190613908565b5050565b826000811180156121ea57506012548111155b612229576040517f08c379a000000000000000000000000000000000000000000000000000000000815260040161222090614459565b60405180910390fd5b60115481612235610f54565b61223f91906146b7565b1115612280576040517f08c379a0000000000000000000000000000000000000000000000000000000008152600401612277906144f9565b60405180910390fd5b838060105461228f919061473e565b3410156122d1576040517f08c379a00000000000000000000000000000000000000000000000000000000081526004016122c890614559565b60405180910390fd5b601460019054906101000a900460ff16612320576040517f08c379a000000000000000000000000000000000000000000000000000000000815260040161231790614519565b60405180910390fd5b601354600b600061232f6128dd565b73ffffffffffffffffffffffffffffffffffffffff1673ffffffffffffffffffffffffffffffffffffffff1681526020019081526020016000205414156123ab576040517f08c379a00000000000000000000000000000000000000000000000000000000081526004016123a2906144b9565b60405180910390fd5b6123b58484611765565b6123f4576040517f08c379a00000000000000000000000000000000000000000000000000000000081526004016123eb90614439565b60405180910390fd5b601354600b60006124036128dd565b73ffffffffffffffffffffffffffffffffffffffff1673ffffffffffffffffffffffffffffffffffffffff1681526020019081526020016000208190555061245261244c6128dd565b866130fc565b5050505050565b60115481565b600b6020528060005260406000206000915090505481565b61247f6128dd565b73ffffffffffffffffffffffffffffffffffffffff1661249d611991565b73ffffffffffffffffffffffffffffffffffffffff16146124f3576040517f08c379a00000000000000000000000000000000000000000000000000000000081526004016124ea90614479565b60405180910390fd5b80601460026101000a81548160ff02191690831515021790555050565b6060600f805461251f9061488c565b80601f016020809104026020016040519081016040528092919081815260200182805461254b9061488c565b80156125985780601f1061256d57610100808354040283529160200191612598565b820191906000526020600020905b81548152906001019060200180831161257b57829003601f168201915b5050505050905090565b6000600760008473ffffffffffffffffffffffffffffffffffffffff1673ffffffffffffffffffffffffffffffffffffffff16815260200190815260200160002060008373ffffffffffffffffffffffffffffffffffffffff1673ffffffffffffffffffffffffffffffffffffffff16815260200190815260200160002060009054906101000a900460ff16905092915050565b8160008111801561264957506012548111155b612688576040517f08c379a000000000000000000000000000000000000000000000000000000000815260040161267f90614459565b60405180910390fd5b60115481612694610f54565b61269e91906146b7565b11156126df576040517f08c379a00000000000000000000000000000000000000000000000000000000081526004016126d6906144f9565b60405180910390fd5b6126e76128dd565b73ffffffffffffffffffffffffffffffffffffffff16612705611991565b73ffffffffffffffffffffffffffffffffffffffff161461275b576040517f08c379a000000000000000000000000000000000000000000000000000000000815260040161275290614479565b60405180910390fd5b61276582846130fc565b505050565b6127726128dd565b73ffffffffffffffffffffffffffffffffffffffff16612790611991565b73ffffffffffffffffffffffffffffffffffffffff16146127e6576040517f08c379a00000000000000000000000000000000000000000000000000000000081526004016127dd90614479565b60405180910390fd5b600073ffffffffffffffffffffffffffffffffffffffff168173ffffffffffffffffffffffffffffffffffffffff16141561282057600080fd5b600080fd5b60007f01ffc9a7000000000000000000000000000000000000000000000000000000007bffffffffffffffffffffffffffffffffffffffffffffffffffffffff1916827bffffffffffffffffffffffffffffffffffffffffffffffffffffffff1916149050919050565b60008161289a612997565b111580156128a9575060005482105b80156128d6575060046000838152602001908152602001600020600001601c9054906101000a900460ff16155b9050919050565b600033905090565b826006600084815260200190815260200160002060006101000a81548173ffffffffffffffffffffffffffffffffffffffff021916908373ffffffffffffffffffffffffffffffffffffffff160217905550818373ffffffffffffffffffffffffffffffffffffffff168273ffffffffffffffffffffffffffffffffffffffff167f8c5be1e5ebec7d5bd14f71427d1e84f3dd0314c0f7b2291e5b200ac8c7c3b92560405160405180910390a4505050565b60006001905090565b60006129ab82612e56565b90508373ffffffffffffffffffffffffffffffffffffffff16816000015173ffffffffffffffffffffffffffffffffffffffff1614612a16576040517fa114810000000000000000000000000000000000000000000000000000000000815260040160405180910390fd5b60008473ffffffffffffffffffffffffffffffffffffffff16612a376128dd565b73ffffffffffffffffffffffffffffffffffffffff161480612a665750612a6585612a606128dd565b6125a2565b5b80612aab5750612a746128dd565b73ffffffffffffffffffffffffffffffffffffffff16612a9384610c98565b73ffffffffffffffffffffffffffffffffffffffff16145b905080612ae4576040517f59c896be00000000000000000000000000000000000000000000000000000000815260040160405180910390fd5b600073ffffffffffffffffffffffffffffffffffffffff168473ffffffffffffffffffffffffffffffffffffffff161415612b4b576040517fea553b3400000000000000000000000000000000000000000000000000000000815260040160405180910390fd5b612b588585856001613490565b612b64600084876128e5565b6001600560008773ffffffffffffffffffffffffffffffffffffffff1673ffffffffffffffffffffffffffffffffffffffff16815260200190815260200160002060000160008282829054906101000a900467ffffffffffffffff160392506101000a81548167ffffffffffffffff021916908367ffffffffffffffff1602179055506001600560008673ffffffffffffffffffffffffffffffffffffffff1673ffffffffffffffffffffffffffffffffffffffff16815260200190815260200160002060000160008282829054906101000a900467ffffffffffffffff160192506101000a81548167ffffffffffffffff021916908367ffffffffffffffff1602179055506000600460008581526020019081526020016000209050848160000160006101000a81548173ffffffffffffffffffffffffffffffffffffffff021916908373ffffffffffffffffffffffffffffffffffffffff160217905550428160000160146101000a81548167ffffffffffffffff021916908367ffffffffffffffff16021790555060006001850190506000600460008381526020019081526020016000209050600073ffffffffffffffffffffffffffffffffffffffff168160000160009054906101000a900473ffffffffffffffffffffffffffffffffffffffff1673ffffffffffffffffffffffffffffffffffffffff161415612de4576000548214612de357878160000160006101000a81548173ffffffffffffffffffffffffffffffffffffffff021916908373ffffffffffffffffffffffffffffffffffffffff16021790555084602001518160000160146101000a81548167ffffffffffffffff021916908367ffffffffffffffff1602179055505b5b505050828473ffffffffffffffffffffffffffffffffffffffff168673ffffffffffffffffffffffffffffffffffffffff167fddf252ad1be2c89b69c2b068fc378daa952ba7f163c4a11628f55a4df523b3ef60405160405180910390a4612e4f8585856001613496565b5050505050565b612e5e61398e565b600082905080612e6c612997565b11158015612e7b575060005481105b156130ae576000600460008381526020019081526020016000206040518060600160405290816000820160009054906101000a900473ffffffffffffffffffffffffffffffffffffffff1673ffffffffffffffffffffffffffffffffffffffff1673ffffffffffffffffffffffffffffffffffffffff1681526020016000820160149054906101000a900467ffffffffffffffff1667ffffffffffffffff1667ffffffffffffffff16815260200160008201601c9054906101000a900460ff161515151581525050905080604001516130ac57600073ffffffffffffffffffffffffffffffffffffffff16816000015173ffffffffffffffffffffffffffffffffffffffff1614612f905780925050506130e0565b5b6001156130ab57818060019003925050600460008381526020019081526020016000206040518060600160405290816000820160009054906101000a900473ffffffffffffffffffffffffffffffffffffffff1673ffffffffffffffffffffffffffffffffffffffff1673ffffffffffffffffffffffffffffffffffffffff1681526020016000820160149054906101000a900467ffffffffffffffff1667ffffffffffffffff1667ffffffffffffffff16815260200160008201601c9054906101000a900460ff1615151515815250509050600073ffffffffffffffffffffffffffffffffffffffff16816000015173ffffffffffffffffffffffffffffffffffffffff16146130a65780925050506130e0565b612f91565b5b505b6040517fdf2d9b4200000000000000000000000000000000000000000000000000000000815260040160405180910390fd5b919050565b6000826130f2858461349c565b1490509392505050565b613116828260405180602001604052806000815250613511565b5050565b6000808273ffffffffffffffffffffffffffffffffffffffff163b119050919050565b60008373ffffffffffffffffffffffffffffffffffffffff1663150b7a026131636128dd565b8786866040518563ffffffff1660e01b81526004016131859493929190614373565b602060405180830381600087803b15801561319f57600080fd5b505af19250505080156131d057506040513d601f19601f820116820180604052508101906131cd9190613e39565b60015b61324a573d8060008114613200576040519150601f19603f3d011682016040523d82523d6000602084013e613205565b606091505b50600081511415613242576040517fd1a57ed600000000000000000000000000000000000000000000000000000000815260040160405180910390fd5b805181602001fd5b63150b7a0260e01b7bffffffffffffffffffffffffffffffffffffffffffffffffffffffff1916817bffffffffffffffffffffffffffffffffffffffffffffffffffffffff191614915050949350505050565b6060600c80546132ac9061488c565b80601f01602080910402602001604051908101604052809291908181526020018280546132d89061488c565b80156133255780601f106132fa57610100808354040283529160200191613325565b820191906000526020600020905b81548152906001019060200180831161330857829003601f168201915b5050505050905090565b60606000821415613377576040518060400160405280600181526020017f3000000000000000000000000000000000000000000000000000000000000000815250905061348b565b600082905060005b600082146133a9578080613392906148ef565b915050600a826133a2919061470d565b915061337f565b60008167ffffffffffffffff8111156133c5576133c4614a49565b5b6040519080825280601f01601f1916602001820160405280156133f75781602001600182028036833780820191505090505b5090505b60008514613484576001826134109190614798565b9150600a8561341f919061495c565b603061342b91906146b7565b60f81b81838151811061344157613440614a1a565b5b60200101907effffffffffffffffffffffffffffffffffffffffffffffffffffffffffffff1916908160001a905350600a8561347d919061470d565b94506133fb565b8093505050505b919050565b50505050565b50505050565b60008082905060005b84518110156135065760008582815181106134c3576134c2614a1a565b5b602002602001015190508083116134e5576134de8382613523565b92506134f2565b6134ef8184613523565b92505b5080806134fe906148ef565b9150506134a5565b508091505092915050565b61351e838383600161353a565b505050565b600082600052816020526040600020905092915050565b600080549050600073ffffffffffffffffffffffffffffffffffffffff168573ffffffffffffffffffffffffffffffffffffffff1614156135a7576040517f2e07630000000000000000000000000000000000000000000000000000000000815260040160405180910390fd5b60008414156135e2576040517fb562e8dd00000000000000000000000000000000000000000000000000000000815260040160405180910390fd5b6135ef6000868387613490565b83600560008773ffffffffffffffffffffffffffffffffffffffff1673ffffffffffffffffffffffffffffffffffffffff16815260200190815260200160002060000160008282829054906101000a900467ffffffffffffffff160192506101000a81548167ffffffffffffffff021916908367ffffffffffffffff16021790555083600560008773ffffffffffffffffffffffffffffffffffffffff1673ffffffffffffffffffffffffffffffffffffffff16815260200190815260200160002060000160088282829054906101000a900467ffffffffffffffff160192506101000a81548167ffffffffffffffff021916908367ffffffffffffffff160217905550846004600083815260200190815260200160002060000160006101000a81548173ffffffffffffffffffffffffffffffffffffffff021916908373ffffffffffffffffffffffffffffffffffffffff160217905550426004600083815260200190815260200160002060000160146101000a81548167ffffffffffffffff021916908367ffffffffffffffff1602179055506000819050600085820190508380156137b957506137b88773ffffffffffffffffffffffffffffffffffffffff1661311a565b5b1561387f575b818773ffffffffffffffffffffffffffffffffffffffff16600073ffffffffffffffffffffffffffffffffffffffff167fddf252ad1be2c89b69c2b068fc378daa952ba7f163c4a11628f55a4df523b3ef60405160405180910390a461382e600088848060010195508861313d565b613864576040517fd1a57ed600000000000000000000000000000000000000000000000000000000815260040160405180910390fd5b808214156137bf57826000541461387a57600080fd5b6138eb565b5b818060010192508773ffffffffffffffffffffffffffffffffffffffff16600073ffffffffffffffffffffffffffffffffffffffff167fddf252ad1be2c89b69c2b068fc378daa952ba7f163c4a11628f55a4df523b3ef60405160405180910390a480821415613880575b8160008190555050506139016000868387613496565b5050505050565b8280546139149061488c565b90600052602060002090601f016020900481019282613936576000855561397d565b82601f1061394f57805160ff191683800117855561397d565b8280016001018555821561397d579182015b8281111561397c578251825591602001919060010190613961565b5b50905061398a91906139d1565b5090565b6040518060600160405280600073ffffffffffffffffffffffffffffffffffffffff168152602001600067ffffffffffffffff1681526020016000151581525090565b5b808211156139ea5760008160009055506001016139d2565b5090565b6000613a016139fc846145b9565b614594565b905082815260208101848484011115613a1d57613a1c614a87565b5b613a2884828561484a565b509392505050565b6000613a43613a3e846145ea565b614594565b905082815260208101848484011115613a5f57613a5e614a87565b5b613a6a84828561484a565b509392505050565b600081359050613a8181614c9d565b92915050565b60008083601f840112613a9d57613a9c614a7d565b5b8235905067ffffffffffffffff811115613aba57613ab9614a78565b5b602083019150836020820283011115613ad657613ad5614a82565b5b9250929050565b600081359050613aec81614cb4565b92915050565b600081359050613b0181614ccb565b92915050565b600081359050613b1681614ce2565b92915050565b600081519050613b2b81614ce2565b92915050565b600082601f830112613b4657613b45614a7d565b5b8135613b568482602086016139ee565b91505092915050565b600082601f830112613b7457613b73614a7d565b5b8135613b84848260208601613a30565b91505092915050565b600081359050613b9c81614cf9565b92915050565b600060208284031215613bb857613bb7614a91565b5b6000613bc684828501613a72565b91505092915050565b60008060408385031215613be657613be5614a91565b5b6000613bf485828601613a72565b9250506020613c0585828601613a72565b9150509250929050565b600080600060608486031215613c2857613c27614a91565b5b6000613c3686828701613a72565b9350506020613c4786828701613a72565b9250506040613c5886828701613b8d565b9150509250925092565b60008060008060808587031215613c7c57613c7b614a91565b5b6000613c8a87828801613a72565b9450506020613c9b87828801613a72565b9350506040613cac87828801613b8d565b925050606085013567ffffffffffffffff811115613ccd57613ccc614a8c565b5b613cd987828801613b31565b91505092959194509250565b60008060408385031215613cfc57613cfb614a91565b5b6000613d0a85828601613a72565b9250506020613d1b85828601613add565b9150509250929050565b60008060408385031215613d3c57613d3b614a91565b5b6000613d4a85828601613a72565b9250506020613d5b85828601613b8d565b9150509250929050565b60008060208385031215613d7c57613d7b614a91565b5b600083013567ffffffffffffffff811115613d9a57613d99614a8c565b5b613da685828601613a87565b92509250509250929050565b600060208284031215613dc857613dc7614a91565b5b6000613dd684828501613add565b91505092915050565b600060208284031215613df557613df4614a91565b5b6000613e0384828501613af2565b91505092915050565b600060208284031215613e2257613e21614a91565b5b6000613e3084828501613b07565b91505092915050565b600060208284031215613e4f57613e4e614a91565b5b6000613e5d84828501613b1c565b91505092915050565b600060208284031215613e7c57613e7b614a91565b5b600082013567ffffffffffffffff811115613e9a57613e99614a8c565b5b613ea684828501613b5f565b91505092915050565b600060208284031215613ec557613ec4614a91565b5b6000613ed384828501613b8d565b91505092915050565b60008060408385031215613ef357613ef2614a91565b5b6000613f0185828601613b8d565b9250506020613f1285828601613a72565b9150509250929050565b600080600060408486031215613f3557613f34614a91565b5b6000613f4386828701613b8d565b935050602084013567ffffffffffffffff811115613f6457613f63614a8c565b5b613f7086828701613a87565b92509250509250925092565b6000613f8883836142d9565b60208301905092915050565b613f9d816147cc565b82525050565b613fb4613faf826147cc565b614938565b82525050565b6000613fc582614640565b613fcf818561466e565b9350613fda8361461b565b8060005b8381101561400b578151613ff28882613f7c565b9750613ffd83614661565b925050600181019050613fde565b5085935050505092915050565b614021816147de565b82525050565b614030816147ea565b82525050565b60006140418261464b565b61404b818561467f565b935061405b818560208601614859565b61406481614a96565b840191505092915050565b600061407a82614656565b614084818561469b565b9350614094818560208601614859565b61409d81614a96565b840191505092915050565b60006140b382614656565b6140bd81856146ac565b93506140cd818560208601614859565b80840191505092915050565b600081546140e68161488c565b6140f081866146ac565b9450600182166000811461410b576001811461411c5761414f565b60ff1983168652818601935061414f565b6141258561462b565b60005b8381101561414757815481890152600182019150602081019050614128565b838801955050505b50505092915050565b6000614165600e8361469b565b915061417082614ab4565b602082019050919050565b600061418860148361469b565b915061419382614add565b602082019050919050565b60006141ab60208361469b565b91506141b682614b06565b602082019050919050565b60006141ce60178361469b565b91506141d982614b2f565b602082019050919050565b60006141f160188361469b565b91506141fc82614b58565b602082019050919050565b6000614214602f8361469b565b915061421f82614b81565b604082019050919050565b6000614237600083614690565b915061424282614bd0565b600082019050919050565b600061425a60148361469b565b915061426582614bd3565b602082019050919050565b600061427d60228361469b565b915061428882614bfc565b604082019050919050565b60006142a0601f8361469b565b91506142ab82614c4b565b602082019050919050565b60006142c360138361469b565b91506142ce82614c74565b602082019050919050565b6142e281614840565b82525050565b6142f181614840565b82525050565b60006143038284613fa3565b60148201915081905092915050565b600061431e82866140a8565b915061432a82856140a8565b915061433682846140d9565b9150819050949350505050565b600061434e8261422a565b9150819050919050565b600060208201905061436d6000830184613f94565b92915050565b60006080820190506143886000830187613f94565b6143956020830186613f94565b6143a260408301856142e8565b81810360608301526143b48184614036565b905095945050505050565b600060208201905081810360008301526143d98184613fba565b905092915050565b60006020820190506143f66000830184614018565b92915050565b60006020820190506144116000830184614027565b92915050565b60006020820190508181036000830152614431818461406f565b905092915050565b6000602082019050818103600083015261445281614158565b9050919050565b600060208201905081810360008301526144728161417b565b9050919050565b600060208201905081810360008301526144928161419e565b9050919050565b600060208201905081810360008301526144b2816141c1565b9050919050565b600060208201905081810360008301526144d2816141e4565b9050919050565b600060208201905081810360008301526144f281614207565b9050919050565b600060208201905081810360008301526145128161424d565b9050919050565b6000602082019050818103600083015261453281614270565b9050919050565b6000602082019050818103600083015261455281614293565b9050919050565b60006020820190508181036000830152614572816142b6565b9050919050565b600060208201905061458e60008301846142e8565b92915050565b600061459e6145af565b90506145aa82826148be565b919050565b6000604051905090565b600067ffffffffffffffff8211156145d4576145d3614a49565b5b6145dd82614a96565b9050602081019050919050565b600067ffffffffffffffff82111561460557614604614a49565b5b61460e82614a96565b9050602081019050919050565b6000819050602082019050919050565b60008190508160005260206000209050919050565b600081519050919050565b600081519050919050565b600081519050919050565b6000602082019050919050565b600082825260208201905092915050565b600082825260208201905092915050565b600081905092915050565b600082825260208201905092915050565b600081905092915050565b60006146c282614840565b91506146cd83614840565b9250827fffffffffffffffffffffffffffffffffffffffffffffffffffffffffffffffff038211156147025761470161498d565b5b828201905092915050565b600061471882614840565b915061472383614840565b925082614733576147326149bc565b5b828204905092915050565b600061474982614840565b915061475483614840565b9250817fffffffffffffffffffffffffffffffffffffffffffffffffffffffffffffffff048311821515161561478d5761478c61498d565b5b828202905092915050565b60006147a382614840565b91506147ae83614840565b9250828210156147c1576147c061498d565b5b828203905092915050565b60006147d782614820565b9050919050565b60008115159050919050565b6000819050919050565b60007fffffffff0000000000000000000000000000000000000000000000000000000082169050919050565b600073ffffffffffffffffffffffffffffffffffffffff82169050919050565b6000819050919050565b82818337600083830152505050565b60005b8381101561487757808201518184015260208101905061485c565b83811115614886576000848401525b50505050565b600060028204905060018216806148a457607f821691505b602082108114156148b8576148b76149eb565b5b50919050565b6148c782614a96565b810181811067ffffffffffffffff821117156148e6576148e5614a49565b5b80604052505050565b60006148fa82614840565b91507fffffffffffffffffffffffffffffffffffffffffffffffffffffffffffffffff82141561492d5761492c61498d565b5b600182019050919050565b60006149438261494a565b9050919050565b600061495582614aa7565b9050919050565b600061496782614840565b915061497283614840565b925082614982576149816149bc565b5b828206905092915050565b7f4e487b7100000000000000000000000000000000000000000000000000000000600052601160045260246000fd5b7f4e487b7100000000000000000000000000000000000000000000000000000000600052601260045260246000fd5b7f4e487b7100000000000000000000000000000000000000000000000000000000600052602260045260246000fd5b7f4e487b7100000000000000000000000000000000000000000000000000000000600052603260045260246000fd5b7f4e487b7100000000000000000000000000000000000000000000000000000000600052604160045260246000fd5b600080fd5b600080fd5b600080fd5b600080fd5b600080fd5b600080fd5b6000601f19601f8301169050919050565b60008160601b9050919050565b7f496e76616c69642070726f6f6621000000000000000000000000000000000000600082015250565b7f496e76616c6964206d696e7420616d6f756e7421000000000000000000000000600082015250565b7f4f776e61626c653a2063616c6c6572206973206e6f7420746865206f776e6572600082015250565b7f54686520636f6e74726163742069732070617573656421000000000000000000600082015250565b7f4164647265737320616c726561647920636c61696d6564210000000000000000600082015250565b7f4552433732314d657461646174613a2055524920717565727920666f72206e6f60008201527f6e6578697374656e7420746f6b656e0000000000000000000000000000000000602082015250565b50565b7f4d617820737570706c7920657863656564656421000000000000000000000000600082015250565b7f5468652077686974656c6973742073616c65206973206e6f7420656e61626c6560008201527f6421000000000000000000000000000000000000000000000000000000000000602082015250565b7f5265656e7472616e637947756172643a207265656e7472616e742063616c6c00600082015250565b7f496e73756666696369656e742066756e64732100000000000000000000000000600082015250565b614ca6816147cc565b8114614cb157600080fd5b50565b614cbd816147de565b8114614cc857600080fd5b50565b614cd4816147ea565b8114614cdf57600080fd5b50565b614ceb816147f4565b8114614cf657600080fd5b50565b614d0281614840565b8114614d0d57600080fd5b5056fea2646970667358221220fbe4137df9176055b58fc5ce481141edb8808659e9f9c957d821baa050355a6864736f6c63430008070033",
  "immutableReferences": {},
  "source": "// SPDX-License-Identifier: MIT\n\npragma solidity ^0.8.7;\n\nimport \"./ERC721A.sol\";\n\nimport \"./openzeppelin-contracts/contracts/access/Ownable.sol\";\nimport \"./openzeppelin-contracts/contracts/utils/cryptography/MerkleProof.sol\";\nimport \"./openzeppelin-contracts/contracts/security/ReentrancyGuard.sol\";\n\ncontract TokenizedAccess is ERC721A, Ownable, ReentrancyGuard {\n    using Strings for uint256;\n\n    bytes32 public merkleRoot;\n    mapping(address => uint256) public whitelistClaimed;\n\n    string public uriPrefix = \"\";\n    string public uriSuffix = \".json\";\n    string public hiddenMetadataUri;\n    string public contractUri;\n\n    uint256 public cost;\n    uint256 public maxSupply;\n    uint256 public maxMintAmountPerTx;\n\n    uint256 public mintWave;\n\n    bool public paused = true;\n    bool public whitelistMintEnabled = false;\n    bool public revealed = false;\n\n    function renounceOwnership() public view override onlyOwner {\n        revert();\n    }\n\n    function transferOwnership(\n        address newOwner\n    ) public view override onlyOwner {\n        require(newOwner != address(0));\n        revert();\n    }\n\n    constructor(\n        string memory _tokenName,\n        string memory _tokenSymbol,\n        uint256 _cost,\n        uint256 _maxSupply,\n        uint256 _maxMintAmountPerTx,\n        string memory _hiddenMetadataUri,\n        string memory _contractUri\n    ) ERC721A(_tokenName, _tokenSymbol) {\n        setCost(_cost);\n        setMintWave(1);\n        setMaxSupply(_maxSupply);\n        setMaxMintAmountPerTx(_maxMintAmountPerTx);\n        setHiddenMetadataUri(_hiddenMetadataUri);\n        setContractUri(_contractUri);\n    }\n\n    modifier mintCompliance(uint256 _mintAmount) {\n        require(\n            _mintAmount > 0 && _mintAmount <= maxMintAmountPerTx,\n            \"Invalid mint amount!\"\n        );\n        require(\n            totalSupply() + _mintAmount <= maxSupply,\n            \"Max supply exceeded!\"\n        );\n        _;\n    }\n\n    modifier mintPriceCompliance(uint256 _mintAmount) {\n        require(msg.value >= cost * _mintAmount, \"Insufficient funds!\");\n        _;\n    }\n\n    function whitelistMint(\n        uint256 _mintAmount,\n        bytes32[] calldata _merkleProof\n    )\n        public\n        payable\n        mintCompliance(_mintAmount)\n        mintPriceCompliance(_mintAmount)\n    {\n        // Verify whitelist requirements\n        require(whitelistMintEnabled, \"The whitelist sale is not enabled!\");\n        require(\n            whitelistClaimed[_msgSender()] != mintWave,\n            \"Address already claimed!\"\n        );\n        require(whitelistContains(_merkleProof), \"Invalid proof!\");\n\n        whitelistClaimed[_msgSender()] = mintWave;\n        _safeMint(_msgSender(), _mintAmount);\n    }\n\n    function whitelistContains(\n        bytes32[] calldata _merkleProof\n    ) public view returns (bool) {\n        bytes32 leaf = keccak256(abi.encodePacked(_msgSender()));\n        return MerkleProof.verify(_merkleProof, merkleRoot, leaf);\n    }\n\n    function mint(\n        uint256 _mintAmount\n    )\n        public\n        payable\n        mintCompliance(_mintAmount)\n        mintPriceCompliance(_mintAmount)\n    {\n        require(!paused, \"The contract is paused!\");\n\n        _safeMint(_msgSender(), _mintAmount);\n    }\n\n    function mintForAddress(\n        uint256 _mintAmount,\n        address _receiver\n    ) public mintCompliance(_mintAmount) onlyOwner {\n        _safeMint(_receiver, _mintAmount);\n    }\n\n    function walletOfOwner(\n        address _owner\n    ) public view returns (uint256[] memory) {\n        uint256 ownerTokenCount = balanceOf(_owner);\n        uint256[] memory ownedTokenIds = new uint256[](ownerTokenCount);\n        uint256 currentTokenId = _startTokenId();\n        uint256 ownedTokenIndex = 0;\n        address latestOwnerAddress;\n\n        while (\n            ownedTokenIndex < ownerTokenCount && currentTokenId < _currentIndex\n        ) {\n            TokenOwnership memory ownership = _ownerships[currentTokenId];\n\n            if (!ownership.burned) {\n                if (ownership.addr != address(0)) {\n                    latestOwnerAddress = ownership.addr;\n                }\n\n                if (latestOwnerAddress == _owner) {\n                    ownedTokenIds[ownedTokenIndex] = currentTokenId;\n\n                    ownedTokenIndex++;\n                }\n            }\n\n            currentTokenId++;\n        }\n\n        return ownedTokenIds;\n    }\n\n    function _startTokenId() internal view virtual override returns (uint256) {\n        return 1;\n    }\n\n    function tokenURI(\n        uint256 _tokenId\n    ) public view virtual override returns (string memory) {\n        require(\n            _exists(_tokenId),\n            \"ERC721Metadata: URI query for nonexistent token\"\n        );\n\n        if (revealed == false) {\n            return hiddenMetadataUri;\n        }\n\n        string memory currentBaseURI = _baseURI();\n        return\n            bytes(currentBaseURI).length > 0\n                ? string(\n                    abi.encodePacked(\n                        currentBaseURI,\n                        _tokenId.toString(),\n                        uriSuffix\n                    )\n                )\n                : \"\";\n    }\n\n    function setRevealed(bool _state) public onlyOwner {\n        revealed = _state;\n    }\n\n    function setCost(uint256 _cost) public onlyOwner {\n        cost = _cost;\n    }\n\n    function setMintWave(uint256 _mintWave) public onlyOwner {\n        mintWave = _mintWave;\n    }\n\n    function setMaxMintAmountPerTx(\n        uint256 _maxMintAmountPerTx\n    ) public onlyOwner {\n        maxMintAmountPerTx = _maxMintAmountPerTx;\n    }\n\n    function setMaxSupply(uint256 _maxSupply) public onlyOwner {\n        maxSupply = _maxSupply;\n    }\n\n    function setHiddenMetadataUri(\n        string memory _hiddenMetadataUri\n    ) public onlyOwner {\n        hiddenMetadataUri = _hiddenMetadataUri;\n    }\n\n    function setContractUri(string memory _contractUri) public onlyOwner {\n        contractUri = _contractUri;\n    }\n\n    function setUriPrefix(string memory _uriPrefix) public onlyOwner {\n        uriPrefix = _uriPrefix;\n    }\n\n    function setUriSuffix(string memory _uriSuffix) public onlyOwner {\n        uriSuffix = _uriSuffix;\n    }\n\n    function setPaused(bool _state) public onlyOwner {\n        paused = _state;\n    }\n\n    function setMerkleRoot(bytes32 _merkleRoot) public onlyOwner {\n        merkleRoot = _merkleRoot;\n    }\n\n    function setWhitelistMintEnabled(bool _state) public onlyOwner {\n        whitelistMintEnabled = _state;\n    }\n\n    function withdraw() public onlyOwner nonReentrant {\n        (bool os, ) = payable(owner()).call{value: address(this).balance}(\"\");\n        require(os);\n    }\n\n    function _baseURI() internal view virtual override returns (string memory) {\n        return uriPrefix;\n    }\n\n    function contractURI() public view returns (string memory) {\n        return contractUri;\n    }\n}\n",
  "sourcePath": "/Users/kp/Desktop/Thesis/721a/contracts/TokenizedAccess.sol",
  "compiler": {
    "name": "solc",
    "version": "0.8.7+commit.e28d00a7.Emscripten.clang"
  },
  "schemaVersion": "3.4.16",
  "updatedAt": "2023-12-03T22:28:24.901Z",
  "networkType": "ethereum",
  "devdoc": {
    "kind": "dev",
    "methods": {
      "approve(address,uint256)": {
        "details": "See {IERC721-approve}."
      },
      "balanceOf(address)": {
        "details": "See {IERC721-balanceOf}."
      },
      "getApproved(uint256)": {
        "details": "See {IERC721-getApproved}."
      },
      "isApprovedForAll(address,address)": {
        "details": "See {IERC721-isApprovedForAll}."
      },
      "name()": {
        "details": "See {IERC721Metadata-name}."
      },
      "owner()": {
        "details": "Returns the address of the current owner."
      },
      "ownerOf(uint256)": {
        "details": "See {IERC721-ownerOf}."
      },
      "renounceOwnership()": {
        "details": "Leaves the contract without owner. It will not be possible to call `onlyOwner` functions anymore. Can only be called by the current owner. NOTE: Renouncing ownership will leave the contract without an owner, thereby removing any functionality that is only available to the owner."
      },
      "safeTransferFrom(address,address,uint256)": {
        "details": "See {IERC721-safeTransferFrom}."
      },
      "safeTransferFrom(address,address,uint256,bytes)": {
        "details": "See {IERC721-safeTransferFrom}."
      },
      "setApprovalForAll(address,bool)": {
        "details": "See {IERC721-setApprovalForAll}."
      },
      "supportsInterface(bytes4)": {
        "details": "See {IERC165-supportsInterface}."
      },
      "symbol()": {
        "details": "See {IERC721Metadata-symbol}."
      },
      "totalSupply()": {
        "details": "Burned tokens are calculated here, use _totalMinted() if you want to count just minted tokens."
      },
      "transferFrom(address,address,uint256)": {
        "details": "See {IERC721-transferFrom}."
      },
      "transferOwnership(address)": {
        "details": "Transfers ownership of the contract to a new account (`newOwner`). Can only be called by the current owner."
      }
    },
    "version": 1
  },
  "userdoc": {
    "kind": "user",
    "methods": {},
    "version": 1
  }
}